:020000040800F2
:1000000088060020450100084D0100084F01000846
:1000100051010008530100085501000800000000CC
:100020000000000000000000000000005701000870
:1000300059010008000000001B4000081F40000894
:100040005F0100085F0100085F0100085F01000810
:100050005F0100085F0100085F0100085F01000800
:100060005F0100085F0100085F0100085F010008F0
:100070005F0100085F0100085F0100085F010008E0
:100080005F0100085F0100085F0100085F010008D0
:100090005F0100085F0100085F0100085F010008C0
:1000A0005F0100085F0100085F0100085F010008B0
:1000B0005F0100085F0100085F0100085F010008A0
:1000C0005F0100085F0100085F0100085F01000890
:1000D0005F0100085F0100085F0100085F01000880
:1000E0005F0100085F0100085F0100085F01000870
:1000F0005F0100085F0100085F0100085F01000860
:100100005F0100085F0100085F0100085F0100084F
:100110005F0100085F0100085F0100085F0100083F
:100120005F0100085F0100085F0100085F0100082F
:10013000DFF80CD004F0F2F800480047F90D000891
:10014000880600200648804706480047FEE7FEE78D
:10015000FEE7FEE7FEE7FEE7FEE7FEE7FEE7FEE777
:1001600011020008310100080CB500220192009232
:100170005248016841F4803101604FF4A063016886
:1001800001F4003100910199491C0191009911B9C4
:1001900001999942F3D10168890302D501210091A7
:1001A00000E000920099012930D145490A6842F0E7
:1001B00010020A600A6822F003020A600A6842F02C
:1001C00002020A604168416041684160416841F44F
:1001D00080614160416821F47C114160416841F4D3
:1001E000E8114160016841F0807101600168890196
:1001F000FCD5416821F003014160416841F00201F2
:1002000041604168C1F381010229FAD10CBDABE71D
:1002100010B52A48016841F0010101604168294A8E
:10022000114041600168284A11400160016821F4D1
:1002300080210160416821F4FE0141604FF41F01FB
:100240008160FFF7E4FF21494FF00060086010BDB6
:1002500010B51A4A506800F00C011D4B1D480029CA
:100260000ED004290ED008290ED003605168194A17
:10027000C1F30311121D515C0268CA40026010BD37
:100280000360F3E70360F1E7516801F4701153680C
:1002900003F48033022404EB914133B153689B0390
:1002A00007D50D4B59430160E0E70B4B5943016003
:1002B000DCE7074B59430160D8E70000001002401B
:1002C000002002400000FFF8FFFFF6FE08ED00E00E
:1002D00000127A000000002000093D002A4908436E
:1002E0002A490860704770B50F23C278012601784B
:1002F000002A1ED0254A126802F4E062C2F5E062CC
:10030000120AC2F10404D3404578A54082781A400D
:100310002A43120101F1E02181F80024007800F065
:100320001F018E404009800000F1E020C0F800610C
:1003300070BD01F01F0086404809800000F1E020F8
:10034000C0F8806170BD124A114001430F48001F80
:10035000016070470D4A121D002903D01168014346
:100360001160704711688143116070474FF0E021C0
:10037000042804D0086920F0040008617047086967
:1003800040F00400086170470000FA050CED00E041
:1003900080FFFF1F10B59C49884209D1012104202C
:1003A00000F07DFA0021BDE81040042000F077BA8B
:1003B0009649884209D10121082000F070FA0021F5
:1003C000BDE81040082000F06ABA9149884209D17E
:1003D0000121102000F063FA0021BDE81040102038
:1003E00000F05DBA8B49884209D10121202000F03C
:1003F00056FA0021BDE81040202000F050BA86498E
:10040000884209D10121402000F049FA0021BDE8CD
:100410001040402000F043BA8049884209D10121B0
:10042000802000F03CFA0021BDE81040802000F060
:1004300036BA7B4988420AD184150121204600F052
:100440002EFA2046BDE81040002100F028BA10BD69
:1004500010B50121084600F022FA0021BDE8104045
:10046000012000F01CBA2DE9F0410022CC7804F004
:100470000F03E40601D58C7823430C784FF00F0767
:1004800014F0FF0F4FF0010C1CD005680CFA02F4B9
:100490000E882640A64211D1960007FA06F825EAF2
:1004A000080503FA06F848EA0505CE78282E02D09A
:1004B000482E02D002E0446100E00461521C082A88
:1004C000E4D305600A88FF2A1ED94568002202F19C
:1004D00008060CFA06F40E882640A64210D19600B3
:1004E00007FA06F825EA080503FA06F848EA0505BA
:1004F000CE78282E00D14461CE78482E00D10461F8
:10050000521C082AE3D34560BDE8F0814FF6FF7125
:100510000180022181700421C170704702460020D1
:1005200092680A4200D001207047806880B270470C
:1005300002460020D2680A4200D001207047C068FD
:1005400080B270470161704741617047002A01D055
:100550000161704741617047C160704741F480326A
:1005600082618161826181698069704710B52D4B1C
:100570001A684FF68074224042EA0010084318605F
:1005800010BD2949C8617047F0B5264C002801DA32
:10059000E36900E06368C0F30346420D120185B2CF
:1005A000C0F301579540032F07D0C2020CD5032298
:1005B000B240934343F0706209E023F070626368D5
:1005C00023F07063636002E0AB4343F0706201B1FB
:1005D0002A43002801DAE261F0BD6260F0BD10B587
:1005E0008A07120F0F23934021F003040D49214481
:1005F0008C689C438C608B68904003438B6010BD7B
:100600000949DC310860704700080140000C0140D6
:10061000001001400014014000180140001C01407E
:10062000002001400000014000002042B448016861
:1006300041F0010101604168B24A11404160016826
:10064000B14A11400160016821F4802101604168D4
:1006500021F4FE0141604FF41F0181607047A849F9
:100660000A6822F480320A600A6822F480220A6052
:10067000B0F5803F07D0B0F5802F03D1086840F473
:10068000A02008607047086840F480300860704718
:100690000346002059099A4A01290AD002290AD0A2
:1006A000516A03F01F02012393400B4200D0012046
:1006B00070471168F5E7116AF3E718B5002000905C
:1006C0004FF4A0643120FFF7E3FF0099491C00912B
:1006D0000099A14201D00028F4D03120FFF7D8FFC3
:1006E00008B1012018BD002018BD854A116821F00D
:1006F000F80141EAC0001060704784490860704703
:100700007F4B5A6822F47C120843104358607047AC
:100710007E49086670477A4A516821F00301014317
:10072000516070477648406800F00C007047744A8A
:10073000516821F0F001014351607047704A5168DF
:1007400021F4E0610143516070476D4A516821F422
:10075000605141EAC00050607047694A002903D0E7
:10076000517A014351727047517A814351727047F7
:100770006649D83108607047614A516821F44041A8
:100780000143516070475E49002220310A7001F830
:100790002029012805D0042802D1052081F8200055
:1007A0007047012081F82000704759490860704760
:1007B00053490A6A02430A6270475549443908603E
:1007C000704710B54E4A516801F00C01514B002999
:1007D00027D0042927D0082927D00360516801F0C9
:1007E000F00109094C4B5C5C0168E14041605468D0
:1007F00004F4E064240A1C5D21FA04F48460546863
:1008000004F46054E40A1B5DD940C160526802F4EC
:100810004042920B404B1B1F9A5CB1FBF2F101610D
:1008200010BD0360DAE70360D8E7516801F4701186
:10083000536803F48033022404EB914133B15368CD
:100840009B0307D5354B59430160C7E7334B5943E9
:100850000160C3E72F4B59430160BFE7284A0029D5
:1008600003D051690143516170475169814351611E
:100870007047234A002903D0916901439161704771
:1008800091698143916170471D4A002903D0D16964
:100890000143D1617047D1698143D1617047184AE2
:1008A000002903D0D1680143D1607047D1688143EA
:1008B000D1607047124A002903D0116901431161C8
:1008C00070471169814311617047114940390860CF
:1008D00070470E49C86470470949C8717047084895
:1008E000416A41F080714162704701460020044A2C
:1008F00092680A4200D0012070470149887270470F
:10090000001002400000FFF8FFFFF6FE0000424228
:100910008004424200127A001800002000093D00C5
:1009200010B5E14988420AD101218C032046FFF726
:10093000B6FF2046BDE810400021FFF7B0BFDB49FD
:1009400088420AD101214C042046FFF7B3FF20461C
:10095000BDE810400021FFF7ADBFD54988420AD15C
:1009600001218C042046FFF7A5FF2046BDE810407A
:100970000021FFF79FBFCF4988420AD10121CC0453
:100980002046FFF797FF2046BDE810400021FFF703
:1009900091BFC94988420AD101210C052046FFF7C1
:1009A00089FF2046BDE810400021FFF783BF10BD3E
:1009B00030B585B004460D46208A4CF6FF710840DC
:1009C000E98801432182A0894EF6F3110840A988E5
:1009D0002A8911436A8902431143A181A08A4FF6F3
:1009E000FF410840A9890143A1826846FFF7E9FE5B
:1009F000AD48844201D1039800E00298A18909041E
:100A000008D500EBC00101EB001029684900B0FBDC
:100A1000F1F007E000EBC00101EB0010296889004C
:100A2000B0FBF1F06422B0FBF2F109010B096FF0A9
:100A300018056B4300EB8300A3891D044FF03203BC
:100A400007D503EBC000B0FBF2F000F0070008434D
:100A500006E003EB0010B0FBF2F000F00F000843DB
:100A6000208105B030BD4FF4165101600021818016
:100A7000C18001810C2242818181704710B5038AB7
:100A80004FF2FF0213400A884C8822438C88C988A1
:100A90000C4322431A43028210BD00210180418091
:100AA0008180C1807047002904D0818941F40051C0
:100AB00081817047818921F400518181704710B58F
:100AC00040F66A13C1F3421301F01F040121A14053
:100AD000012B07D0022B07D014303AB102680A4329
:100AE000026010BD0C30F8E71030F6E702688A4368
:100AF000026010BD002A03D0828A0A4382827047B6
:100B0000828A8A4382827047028A22F00F0202821E
:100B1000028A0A4302827047828922F4006282813B
:100B200082890A4382817047002904D0818941F07B
:100B3000020181817047818921F002018181704722
:100B4000028A22F020020282028A0A43028270474D
:100B5000002904D0018A41F4804101827047018A52
:100B600021F4804101827047C1F308018180704700
:100B70008088C0F308007047818941F001018181BC
:100B80007047028BD2B20283028B42EA01210183B9
:100B90007047028B02F47F420283028B0A43028376
:100BA0007047002904D0818A41F02001818270477A
:100BB000818A21F0200181827047002904D0818A36
:100BC00041F0100181827047818A21F010018182F9
:100BD0007047002904D0818A41F008018182704762
:100BE000818A21F0080181827047002904D081891F
:100BF00041F40041818170478189C1F30E018181F7
:100C00007047002904D0818A41F4006181827047D5
:100C1000818A21F4006181827047828A22F0040275
:100C20008282828A0A4382827047002904D0818AA4
:100C300041F0020181827047818A21F002018182A4
:100C400070470246002012880A4200D001207047F7
:100C50008A05C9430180704770B5002440F66A12C6
:100C6000C1F3421301F01F05012606FA05F2012B1C
:100C70000CD0022B0DD0838A1340090A8E400088C5
:100C800030400BB100B10124204670BD8389134070
:100C9000F3E7038A1340F0E740F66A120A0A0121DB
:100CA0009140C94301807047003801400044004032
:100CB00000480040004C0040005000401CB501209E
:100CC0000190022000905E4D5E4F5F4C06030121B3
:100CD000284600F0F2F901280AD10023042201A9D4
:100CE000A06802F0FDF8014611B158A003F028FBFE
:100CF0003146384600F0E1F901280AD100230422E8
:100D00006946A06802F0ECF8014611B14FA003F06B
:100D100017FB142001F0B6FCD9E700B587B004201A
:100D2000ADF8080053A00590554801904FF480603D
:100D30000490454801A9001D01F0EAF907B000BD83
:100D400008B5414C4FF0FF352B460A226946A06892
:100D500002F0A1F8014619B14AA003F0F1FAF3E755
:100D6000009801684EA003F0EBFAEDE700B587B0FC
:100D70000520ADF8080050A00590534801904FF4AD
:100D80008060049001A9304801F0C2F9D6E738B577
:100D90000A202D4A01460090002308324BA001F0A2
:100DA000B4FE04462CB121464BA003F0C9FA2046FC
:100DB00038BDFFF7DBFF04462CB1214650A003F0FD
:100DC000BFFA204638BDFFF7A8FF04462CB12146E4
:100DD00055A003F0B5FA204638BD002038BD10B547
:100DE0004FF44070FFF77AFA00F01EF900F08FF927
:100DF000BDE8104000F048B910B555A003F0A0FAC6
:100E0000FFF7EDFF53A003F09BFA60A003F098FA00
:100E100066A003F095FA02F05FFD014621B16DA0D6
:100E200003F08EFA012010BDFFF7B1FF014621B19A
:100E300072A003F085FA012010BD02F03CFDFEE730
:100E4000000801400010014028000020CAFDBEDD5E
:100E5000B2BBC4DCB7A2CBCDB5BDCFFBCFA2B6D35E
:100E6000C1D0A3A1B4EDCEF3B4FAC2EB30782558CB
:100E70000A00000053656E645F5461736B000000EC
:100E8000BD0C0008CAFDBEDDBDD3CAD5B3F6B4EDB6
:100E90002CB4EDCEF3B4FAC2EB307825580A00003A
:100EA000B1BEB4CEBDD3CAD5B5BDB5C4CAFDBEDDD5
:100EB000CAC725780A000000526563656976655FD8
:100EC0005461736B00000000410D00085465737499
:100ED0005F51756575650000546573745F51756584
:100EE0007565B6D3C1D0B4B4BDA8CAA7B0DCA3A100
:100EF000CAA7B0DCB4FAC2EB307825580A0000006B
:100F0000526563656976655F5461736BC8CECEF1D7
:100F1000B4B4BDA8CAA7B0DCA3A1CAA7B0DCB4FA18
:100F2000C2EB307825580A0053656E645F546173D4
:100F30006BC8CECEF1B4B4BDA8CAA7B0DCA3A1CA19
:100F4000A7B0DCB4FAC2EB307825580A00000000E4
:100F500031310A00D5E2CAC7D2BBB8F65BD2B0BB0A
:100F6000F05D2D53544D3332C8ABCFB5C1D0BFAABD
:100F7000B7A2B0E52D4C6974654F53CFFBCFA2B635
:100F8000D3C1D0CAB5D1E9A3A10A0A00B0B4CFC277
:100F90004B455931BBF2D5DF4B455932B7A2CBCDCA
:100FA000B6D3C1D0CFFBCFA20A0000005265636563
:100FB0006976655F5461736BC8CECEF1BDD3CAD577
:100FC000B5BDD0C5CFA2D4DAB4AEBFDABBD8CFD4CA
:100FD0000A0A00004C6974654F5320BACBD0C4B3E1
:100FE000F5CABCBBAFCAA7B0DCA3A1CAA7B0DCB42A
:100FF000FAC2EB307825580A0000000041707054A6
:1010000061736B437265617465B4B4BDA8C8CECE1C
:10101000F1CAA7B0DCA3A1CAA7B0DCB4FAC2EB3016
:101020007825580A0000000038B501210820FFF794
:1010300020FC2020ADF8000010208DF803000320D4
:101040008DF802000F4C69462046FFF70CFA01218B
:10105000ADF8001069462046FFF705FA0221ADF809
:10106000001069462046FFF7FEF920212046FFF7D1
:1010700069FA01212046FFF765FA02212046FFF7B1
:1010800061FA38BD000C014038B501211420FFF78A
:10109000F0FB0120ADF8000004248DF80340694600
:1010A0000F48FFF7E0F9E002ADF800008DF80340CB
:1010B00069460C48FFF7D7F938BD70B504460D46B0
:1010C00029462046FFF72AFA012801D0002070BDEA
:1010D00029462046FFF722FA0128F9D0012070BDE9
:1010E000000801400010014008B54FF4A060FFF770
:1010F000F5F825208DF8000001208DF801008DF80D
:1011000002008DF803006846FFF7EDF808BD10B542
:1011100086B001210420FFF7ACFB01218803FFF713
:10112000A8FB4FF40070ADF8140018208DF81700DC
:1011300003208DF816004E4C05A92046FFF793F9C1
:101140002115ADF8141004218DF8171005A92046BB
:10115000FFF789F94FF4E13001900020ADF8080065
:10116000ADF80A00ADF80C00ADF810000C20ADF899
:101170000E00404C01A92046FFF71AFCFFF7B4FF10
:10118000012240F225512046FFF799FC012120461B
:10119000FFF789FC06B010BD10B504462046FFF7E6
:1011A000E3FC80212046FFF74CFD0028F9D010BD5C
:1011B0002DE9F04107460D461646002405E0295D5D
:1011C0003846FFF7E9FF641CE4B2B442F7D340218C
:1011D0003846FFF736FD0028F9D0BDE8F08170B53C
:1011E00006460D4600243046295DFFF7D5FF641CF6
:1011F000285D0028F7D140213046FFF722FD002866
:10120000F9D070BD70B50546080ACCB20146284633
:10121000FFF7AAFC80212846FFF713FD0028F9D02C
:1012200021462846FFF7A0FC80212846FFF709FD4C
:101230000028F9D070BD70B504460E4DE1B22846C5
:10124000FFF792FC80212846FFF7FBFC0028F9D02D
:10125000204670BD10B5074C20212046FFF7F1FC59
:101260000028F9D02046BDE81040FFF781BC0000FF
:10127000000801400038014010B500244FF480718F
:101280002A48006802F0A5FC29490860002807D018
:10129000086800EBC40040600060641C202CF7D399
:1012A00010BD234A126802EBC10109684A68426016
:1012B00001604A68106048607047D0E90012116010
:1012C000D0E9002151600021416001607047002099
:1012D00017490A6802EBC0014B688B4201D101211A
:1012E00000E0002121B1401C2028F3D300207047EA
:1012F00002EBC00040687047014600200C4A1268AB
:1013000002EBC102516801E0401C49688A42FBD1EE
:10131000704710B5002300241846FFF7EDFF044482
:101320005B1C202BF8D3204610BD0000E0000020FD
:10133000340000200EB508200090FA4D4FF0FF3623
:1013400033466A4601A9E86801F065FD0028F7D137
:1013500000980828F4D101980028F1D000F060FB33
:10136000DDE90110884700F05BFBE9E700B587B0D5
:10137000182101A802F09FFEAFF2470001904FF440
:1013800034700490E8A005900020ADF8080001A991
:10139000E84800F0BDFE07B000BDF8B5E6480025FE
:1013A000056045608560C560DE4EB5614FF4E07153
:1013B0000F46E248006802F00CFC0446ECB13946E6
:1013C000204602F078FE34617461258121461C3488
:1013D000012020810C602146401C80B21C34102862
:1013E000F7D30820CF4A002300900C321021184672
:1013F00001F08BFB20B1D248F8BDD148001FF8BDE9
:10140000FFF7B4FF10B1CE48401CF8BD0020F8BD76
:101410002DE9F04F0024671EBC464FF01008C1466E
:1014200000260169C160017A01F00F05DFF808B3F9
:10143000BC4A4FF0030E5BF82510D2F818A0BEEBA3
:10144000517F62D141F000414BF8251021F07F42DD
:101450000023B94951F823B02BF07F4131B3AB429F
:1014600024D0BEEB9B7F21D1914206D3B1FBF2FB8E
:1014700002FB1B1BBBF1000F09D0914216D2B2FB3D
:10148000F1FB01FB1B2BBBF1000F08D00EE0B1FB01
:10149000F2FBBB450AD2B1FBF2F7984606E0B2FB7D
:1014A000F1FBE34502D2B2FBF1FC99465B1C9BB217
:1014B000102BCED39B49B8F1100F0A6919D05146B1
:1014C000C8EBC80302EB830206E0CB681E440B891D
:1014D0001589AB4202D009680029F6D1A9B3096980
:1014E0008A1B0169B2FBF1F301FB1322891AC16067
:1014F00036E0B9F1100F33D00021C160C9EBC9014A
:1015000002EB8104D4F800A02DE00222B2EB517F5F
:1015100026D141F000414BF8251051460CE00A69F4
:1015200003699A4207D10A7A02F00F025BF822207F
:10153000BEEB927F02D009680029F0D129B10022C8
:10154000C2600C46D1F800A00DE009E0DAF80C10FA
:10155000C268914207D8511AC1605446DAF800A017
:10156000BAF1000FF2D1C0F800A0BAF1000F05D017
:10157000DAF80C10C268891ACAF80C1024B120607D
:1015800002210171BDE8F08F66498861F8E770B506
:101590000022644CA16900291BD001E00A460968B9
:1015A0008142FBD10B681BB1DD68CE683544DD603C
:1015B00082B10B68136000220A6001220A71007A6E
:1015C0005D4900F00F0051F8202022F0004241F860
:1015D000202070BD0A68A261EDE77CB5514DAC6971
:1015E00028E02068A861A06900906069019000234C
:1015F00008226946E86801F039FC607920B10128C9
:1016000011D0022813D014E0204600F0F6F920890A
:101610004FF6E071884202D21030208109E000F0DC
:101620000F00208105E02046FFF7F2FE01E00120D7
:101630002071AC69002C02D0E0680028D1D07CBDBC
:1016400010B538488069002805D0C168491EC160BE
:1016500001D1FFF7C2FF002010BD0021314A90697F
:1016600006E08379012B0AD0C368194490600068B2
:101670000028F6D128B1C068084410607047506057
:10168000F8E74FF0FF30704770B500230E6802682E
:1016900014E0D468CD68AC4205D82B1BCB60134650
:1016A0001268002AF5D10A601AB1D468CD68641BAB
:1016B000D46033B119600B46314636680029F0D149
:1016C00070BD0160F7E770B5164C616800291DD048
:1016D0002268904200D91046CB680025834202D38D
:1016E000181AC8600BE0101AC860A06838B105600D
:1016F000A1690C48001DFFF7C7FF6068A061A069E1
:10170000C06808B9FFF769FF6560A56070BD024653
:10171000002004498969CB681844914212D00968B5
:10172000F9E70000380000205377745F5461736B51
:10173000000000006C000020EC000020E000002011
:101740000B03000270472DE9F05F8046DDE90AB621
:101750000C9F0D4691469A46B8F1000F07D04DB147
:10176000012D07D0022D05D0AA48BDE8F09FA94859
:10177000401EFAE7B9F1000F08D0BAF1000F08D007
:1017800056B1012E08D0A3480F30EEE7A148801EC5
:10179000EBE7A048401CE8E7012F03D017B19D48B4
:1017A0001030E2E702F0ECFA9B494C69B4B12268D0
:1017B0004A6102F0EDFAC4F818906571C4F810801F
:1017C00000202060E060C4F814B0A671E771012029
:1017D00020712089AAF800000020C6E702F0D8FA9C
:1017E0008C48801CC1E72DE9F04106460025DFF852
:1017F00024824FF6F07008F10308864202D3404677
:10180000BDE8F08102F0BCFA074606F00F008249FD
:10181000C0EBC000096901EB80042089B04204D00C
:10182000384602F0B5FA4046EAE7E179012923D1CA
:101830006179012920D1794B00F00F0153F8210083
:1018400040F0804043F8210022690A21B2FBF1F602
:1018500001FB162282B9227A40F0005002F00F02FA
:1018600043F822002269B2FBF1F1227A61F31700FA
:1018700002F00F0243F82200207950B101280ED067
:10188000022809D0634D0C35384602F081FA28460B
:10189000B6E7604D2D1DF7E72046FFF778FE20469E
:1018A000FFF7B6FDF0E72DE9F04105460024594F5A
:1018B0004FF6F070FF1C854201D33846A0E702F0D6
:1018C0005FFA064605F00F005349C0EBC0000969F6
:1018D00001EB80000189A94204D0304602F058FA99
:1018E00038468DE7017951B101290BD002290CD07E
:1018F000484C0C34304602F04BFA204680E7454C09
:10190000241DF7E7434C0B34F4E7FFF740FEF1E703
:101910002DE9F04105460E460024DFF8F8804FF629
:10192000F07008F10308854201D3404668E796B19C
:1019300002F026FA074605F00F003749C0EBC00059
:10194000096901EB80000189A94207D0384602F0FD
:101950001FFA404654E72F480E3051E7027952B142
:10196000012A0BD0022A0CD02A4C0C34384602F043
:101970000FFA204644E7274C241DF7E7254C0B348B
:10198000F4E7FFF7C4FE3060F0E72DE9F0410546CB
:101990000024DFF880804FF6F07008F103088542DC
:1019A00001D340462CE702F0EBF9074605F00F00A3
:1019B0001949C0EBC000096901EB80063089A842D3
:1019C00004D0384602F0E4F9404619E7317951B1C4
:1019D00001290ED0022909D00E4C0C34384602F0F1
:1019E000D7F920460CE70B4C241DF7E73046FFF7EC
:1019F000CEFD304600F001F8F0E707494A69026081
:101A0000486100210171007A044A00F00F0042F899
:101A1000201070470203000238000020EC00002074
:101A2000344903C9704734484FF47A710068B0FBF9
:101A3000F1F0704710B5411C07D04FF47A72A0FB4B
:101A40000201002302F0EDFA10BD4FF0FF3010BD8F
:101A500010B54FF47A72A0FB0201002302F0E1FA04
:101A600010BD2DE9F0470E46174600281CD0DEB108
:101A7000D7B1D0E900892048006802F0A2FB00221B
:101A80001E4B02F02FFB04460D464846414602F02D
:101A9000A5FB22462B4602F025FB02F0ABFB38608B
:101AA00031600020BDE8F0871548FBE72DE9F047DD
:101AB0000E46174600281BD0D6B1CFB1D0E9008919
:101AC0000D48006802F07DFB00220E4B02F00AFB7D
:101AD00004460D464846414602F080FB22462B460E
:101AE00002F000FB02F086FB386031600020D9E78D
:101AF0000348D7E7A80000200000002000408F40E6
:101B00001000000280842E4130B500200021FE4AE2
:101B1000958814686A1802F01F0204EBC202536829
:101B2000934209D0303B59B10A469B6B02EB4312FA
:101B300008B1904200D91046491C2029EAD330BD93
:101B40002022F2E7FEE770B504460D4620794007F3
:101B500011D504F128000646FFF7AFFBA08820F05E
:101B600004002946E58040F00400A0803046BDE82E
:101B70007040FFF796BBE58070BDF0B4024601F0FF
:101B80001F034809002B00D1401E916B01F07841E2
:101B90000143DD4C2079184400F01F0060F3DF6141
:101BA0009163216801EBC00302F13001586898424B
:101BB00003D1F0BC184600F053BF3038946B866BED
:101BC00024F0784726F07845BD420BD87D1B04F001
:101BD000784425439563406B303800F130049C42D3
:101BE000ECD10AE0836B926B23F0784322F07842C9
:101BF0009A1A06F078431A438263F0BC303000F042
:101C00002FBF30B4826BD10EBF4B1B6803EBC103F7
:101C1000416B994209D08B6822F0784223F07844D6
:101C2000224403F078431A438A6030BC303000F01D
:101C300019BF2DE9F0410027B3490879401C00F095
:101C40001F008880096801EBC0067468B44249D05F
:101C5000303C3DE0A588A06B400103D0A06B401E46
:101C6000A06339E004F1300000F0FCFE28070BD53A
:101C7000A08820F00800A08004F1280000F0F2FE07
:101C80000020A061E06115E0680504D5A08820F47B
:101C90008060A0800EE0A80408D504F1280000F0C0
:101CA000E1FEA08820F40050A08003E0A08820F08E
:101CB0002000A080A80709D4A08840F00400A080DC
:101CC000E18804F12800FFF7ECFA01277468303C42
:101CD00004F13000B042BDD1002F03D0BDE8F04187
:101CE00002F096B8BDE8F081C10601D587A0704723
:101CF000410701D587A07047810601D587A07047AD
:101D0000010705D5400601D586A0704788A0704719
:101D1000810701D588A07047810405D5400601D50B
:101D200087A070478BA070478DA0704770B5764E26
:101D3000C0EBC000403E00EB4004F16801EB8405BD
:101D4000EB681868B0F1CC3F0CD088A002F0F8FA2C
:101D5000F06800EB8400416A86A002F0F1FA4FF0CF
:101D6000FF3070BD181D51F824104FF0CA3400E048
:101D7000001D814202D90268A242F9D0A968C01AA6
:101D8000081A70BDF0B587B078A002F0D9FA824881
:101D900002F0D6FA75A002F0D3FA80A002F0D0FAD1
:101DA00072A002F0CDFA7E4802F0CAFA6FA002F0EB
:101DB000C7FA7AA002F0C4FA0025534E403E3DE037
:101DC000C5EBC500F16800EB400001EB8004207911
:101DD000C00732D165A002F0B3FA2069FFF7A6FF71
:101DE0000246A088FFF780FFE3682768A16CCDE971
:101DF000037302920591A168CDE90001E388694867
:101E00002269616A02F09CFAA06940B157A002F011
:101E100097FAA069C18864A002F092FA07E053A083
:101E200002F08EFA4FF6FF715FA002F089FA4FA020
:101E300002F086FA59A002F083FA6D1C30698542DF
:101E4000BED307B00020F0BD2DE9F0412E4D542047
:101E5000403D2C69641C4443554E2146306801F0D6
:101E6000B8FEE860534F00284CD0214602F023F919
:101E700005F12800406000600830406000600830D4
:101E80004060006000244FF00108C4EBC400E96822
:101E900000EB400001EB8001A1F804800C611A48BE
:101EA0002831103800F0DCFD641C0F2CEDD94FF008
:101EB0000008C5F824802869E968C0EBC00000EB81
:101EC000400001EB800010492039086004610A6875
:101ED0001120908009682020C880FFF7CDF94FF4C9
:101EE00080710D46306801F074FE044620006CD00D
:101EF000294602F0E0F804480460A0F804800020BD
:101F0000646059E05FE060E09400002052756E6EFE
:101F1000696E6700526561647900000044656C6118
:101F20007900000050656E6454696D654F757400EA
:101F300050656E640000000053757370656E640038
:101F4000517565756550656E6454696D654F75743E
:101F500000000000517565756550656E64000000F5
:101F6000496D706F737369626C6500005B45525216
:101F70005D20000043555252454E54207461736BEE
:101F800020257320737461636B206F766572666CB5
:101F90006F77210A00000000684800080A0000006E
:101FA000E4470008EC4800083078252D3778000019
:101FB000E0000020000200032460401C08342028B8
:101FC0009ED300208EE638468CE638468AE62DE918
:101FD000F05F80460D464FF0FF39B8F1000F0BD08F
:101FE00065B1286960B1286860B1A988FD4A1F29D8
:101FF0000AD91046BDE8F09FFB48FBE7FB48F9E72C
:10200000FB48F7E7FB48F5E704D1FB49884201D0DC
:102010001046EFE7F949FA4AE868511A884202D9AE
:10202000F1481930E6E710B94FF43470E860082140
:10203000E86801F0FFFBE860B0F5987F02D2EA485B
:10204000401ED7E701F09CFE82460026ED4FDFF8E8
:10205000B8B310E0DBF80400A0F1280400F002FDA2
:10206000E94804F12801083800F0F3FCE168386819
:1020700001F0D7FDE660E44800F0FEFC0028E9D05E
:10208000E148083800F0F8FC10B1D74C0A343AE0C7
:10209000DD4808384068A0F1280400F0E3FC504611
:1020A00001F076FED4F810A00822E968386801F043
:1020B00098FD074638001CD03A465046E96801F0C2
:1020C000C4FE2060A8682062E760E868A060A6619E
:1020D000E6610220A080A888E08028686061C4F8DA
:1020E0003C90A664286960622665C8F800A00020BC
:1020F00080E701F045FE8246C34804F12801083814
:1021000000F0A7FCC14C504601F042FE204671E7AA
:1021100070B504462046FFF75AFF00282AD1BA4D71
:102120002068383DC0EBC000E96800EB400001EBDF
:10213000800401F025FE0646A08820F0020040F051
:102140000400A080E18804F12800FFF7AAF8FFF757
:10215000BEF805F1200128384860EA695AB12A889A
:102160004AB90968814206D0304601F011FE01F0FB
:102170004DFE002070BD304601F00AFE002070BD0B
:1021800000B587B0182101A801F095FF9A48019089
:102190004FF4A06004909EA005901F20ADF80800A9
:1021A000994801A92438FFF7B3FF0028FFD107B0F1
:1021B00000BD954818380068002801D000697047B4
:1021C00089487047904818384068002801D0006955
:1021D00070478548704700208B49183909680029E5
:1021E00000D0486A704710B5874C183C2068C0681A
:1021F0000068B0F1CC3F09D0AFF2902002F0A0F817
:1022000020680269416A85A002F09AF86068C26895
:102210000168914203D980681044884213D2AFF21A
:10222000B42002F08DF860680269416A85A002F06E
:1022300087F8AFF2C82002F083F86068C2680168CE
:1022400089A002F07DF86068944C018A227804EB42
:1022500042025180416A2078202204EB401016305F
:1022600001F010FF2078002104EB401080F83510B9
:102270002078401CC0B220700A2804D121706078F8
:1022800040F080006070604838388068002802D0D4
:10229000BDE81040004710BD10B54FF4AB717F484A
:1022A00001F009FF7D490A204870AFF2C501564888
:1022B000383841600021816010BD2DE9F0470646A5
:1022C0004FF0FF39DFF84081A8F13808D8F8140042
:1022D000864203D144480D30BDE8F087D8F8180095
:1022E000864202D140481A30F6E7D8F810008642FC
:1022F00001D33D48F0E701F043FD0746C6EBC600B9
:10230000D8F80C1000EB400001EB8004A588E8072A
:1023100006D0354CE41C384601F03AFD2046DBE798
:10232000E8064FF0000A04D5B8F8000008B1A8F894
:1023300000A0680708D504F12800FEF7BEFFA088BA
:1023400020F00400A08009E005F0080005F4005129
:10235000084303D004F1280000F084FB15F0600F5F
:1023600002D02046FFF74DFCA08820F0020040F08C
:102370000100A080C4F83C90C4F848A0FEF7A7FF75
:10238000DFF884902838A9F11809C9F804002079E9
:102390004FF00105C00623D504F128011A4800F0CA
:1023A0005FFBD8F81000D8F80C10C0EBC00000EBB1
:1023B000400001EB8000C9F800000661D9F8001068
:1023C000A0888880D9F80000E168C160616A416234
:1023D000A580384601F0DCFC01F018FD00207BE709
:1023E0005EE0000003020002070200020102000298
:1023F0000502000204020002451B000888060020B6
:1024000000500020E00000208C00002000020003AB
:1024100049646C65436F72653030300043555252E9
:10242000454E54207461736B2049443A2025733A19
:10243000256420737461636B206F766572666C6FC0
:1024400077210A0048494748455354207461736B0B
:102450002049443A2025733A256420535020657260
:10246000726F72210A0000004849474845535420C2
:102470007461736B20537461636B506F696E746524
:10248000723A203078257820546F704F665374610B
:10249000636B3A20307825780A0000002C01002078
:1024A000A58004F12801FA4800F0D3FAF948E16860
:1024B000006801F0B6FBC4F80CA0384601F068FCD7
:1024C000002009E770B5F24DC0EBC000303D00EBD5
:1024D0004000E96801EB80046169206A88470020B8
:1024E00028802069BDE87040E7E670B50F2801D963
:1024F000E94870BDE64EC0EBC000303E00EB400046
:10250000F16801EB800401F03BFC0546A088C1079F
:1025100002D0E14CE41C03E0810706D4DE4CA41C8D
:10252000284601F035FC204670BD20F00200A08056
:1025300042F22A41084216D140F00400A080E1880E
:1025400004F12800FEF7ADFEF06930B1284601F035
:102550001FFC01F05DFC002070BDFEF7B8FECC4909
:10256000283810394860284601F012FC002070BD60
:102570002DE9F0410546C64E303E7069854202D1D4
:10258000C5480D301EE5B069854202D1C2481A30F7
:1025900018E53069854201D3BF4813E5C5EBC50096
:1025A000F16800EB400001EB800401F0E9FB074615
:1025B000A088C10702D0B84CE41C09E0810702D50D
:1025C000B54C641C04E0C10607D5318829B1B34C71
:1025D000384601F0DDFB2046F4E4400707D504F15E
:1025E0002800FEF76AFEA08820F00400A080A088E2
:1025F00040F00200A080A648103800680069A84298
:1026000006D1384601F0C4FB01F002FC0020D9E4F9
:10261000384601F0BDFB0020D4E470B59C4C103C62
:10262000A4F12002206812690169914201D39A48FD
:1026300070BD0079400701D4002070BD01F0A0FBFF
:1026400005462068C088FEF757FE012814D9206887
:10265000283000F007FA2068818841F00401818069
:102660002068C1882830FEF71CFE284601F090FB48
:1026700001F0CEFB002070BD284601F089FB8648A2
:10268000093070BD70B5064601F0C4FC10B1834836
:10269000083870BD7E483038008810B17E48C01DB3
:1026A00070BDEEB101F06CFB0546794C103C206822
:1026B0002830FEF702FE2068818821F00401818025
:1026C00031462068FFF759FA2068818841F02001DF
:1026D0008180284601F05CFB01F09AFB002070BD70
:1026E000BDE8704099E770B569494FF6FF7530391C
:1026F0000A69904201D3284670BDC0EBC000C9688A
:1027000000EB400001EB800401F03AFB2179C9079E
:1027100003D001F03DFB284670BDE48801F038FB92
:10272000204670BD2DE9F0410D461F2D02D95A48B3
:10273000001F47E4564930394A69904202D1564851
:102740000D303FE48A69904202D153481B3039E48E
:102750000A69904201D3504834E4C0EBC000C96814
:1027600000EB400001EB800401F00AFB0746A08863
:10277000C10705D0384601F00BFB4748C01C21E4D7
:1027800000F0040686B104F128008046FEF795FDAE
:10279000A08820F00400E58040F00400A0802946D5
:1027A0004046FEF77EFD00E0E580384601F0F0FA95
:1027B0000EB101F02DFB002004E40146344810382E
:1027C00000680069AEE72DE9F04107460E46154660
:1027D0002F481038046804F128008046FEF76DFD8C
:1027E000A08820F0040041463043A080384600F025
:1027F00037F9681C09D0A08840F04000A080294625
:102800002046BDE8F041FFF7B8B9BBE670B5044615
:102810000D4604F12800064600F024F9A088A843DC
:10282000A080400606D52046FFF7EBF9A08820F0EF
:102830004000A080A088810708D440F00400A08058
:10284000E1883046BDE87040FEF72BBD70BD10B585
:1028500001F096FA0E4A303A1188491C1180BDE801
:10286000104001F095BA10B501F08AFA084A303AE2
:10287000118819B1491E89B2118019B1BDE8104003
:1028800001F086BA01F084FABDE8104001F0C0BA48
:1028900084000020E000002007020002150200036F
:1028A0002DE9F04107460C46002C05D07649086911
:1028B000874204D3754865E67448801F62E6C7EB1B
:1028C000C700C96800EB400001EB800501F058FA31
:1028D00006462879C00705D0304601F059FA6B4802
:1028E000C01C4FE62868E064A888A084E888E084DB
:1028F000A8682064E8686064D5E91012E86BC4E950
:102900000D122063A86CE063A86908B1C08800E0DC
:102910001420A062E86908B1406800E00F20E0627E
:1029200027621F222046696A01F0D0FB0027E77763
:10293000D5E90210084420F00700A064E16C401AB9
:102940002065636C1868B0F1CC3F08D0781E6065D4
:102950000120A065304601F01BFA002012E6181D88
:102960004FF0CA3C00E0001D814202D90268624576
:10297000F9D0A968C01A081A6065A765EAE770B5BA
:102980000C46002C05D040490A69904204D33F48C8
:1029900070BD3E48801F70BDC0EBC000C96800EB31
:1029A000400001EB800501F0EBF9AA88D10704D0C3
:1029B00001F0EEF93548C01C70BD226001F0E8F965
:1029C000002070BD70B504460D460A2C00D30A3CA9
:1029D0009DB101F0D5F906462D4800EB4401498828
:1029E000296000EB441116312022281D01F04AFB1A
:1029F000304601F0CDF9002070BD2448801F70BD25
:102A0000FFF7C0B92048C06970471F4820304068B0
:102A1000002801D0006970471C48704710B51A495A
:102A20000A69904201D3002010BDC0EBC000C96804
:102A300000EB400001EB800401F0A2F92179C90705
:102A400003D001F0A5F9002010BD01F0A1F9606AE2
:102A500010BD42684A60086042681160416070477A
:102A60000068F6E7D0E900121160D0E9002151605A
:102A700000214160016070474168814201D101201D
:102A80007047002070470000540000200702000239
:102A90002C01002010B50848D0E902134A1C43F16C
:102AA0000001C0E90221FFF7C4F8BDE81040FEF7BD
:102AB000C7BD014800687047A000002070B5F94804
:102AC0004FF4DC742146006801F083F8F64D28606D
:102AD000C8B1214601F0EFFA281D406000600024D3
:102AE000064604EB4400296800EBC40001EB8001BA
:102AF0004C811C31306800F04CFB641CA4B20A2CE1
:102B0000EFD3002070BDE94870BD2DE9F0470D46B8
:102B100008989046011D8FB2B8F1000F07D04FF60C
:102B2000FB71884206D9E148801CBDE8F087DF4888
:102B30000B30FAE7DDB1D0B1DA4C05FB07F12068C4
:102B400001F047F80646300014D001F019F981462B
:102B5000D548001D00F024FB78B1484601F018F973
:102B60003146206801F05DF8D048C01CDDE7CF4851
:102B70000C30DAE7CD48401CD7E7CB48001D44684D
:102B8000D4E900010860D4E90010486000201C3C32
:102B9000E580278126600121A18020826582A081B5
:102BA000E08104F11401496009600831496009605D
:102BB000083149600960484601F0EAF86089C8F8C0
:102BC00000000020B1E710B50A2802D3B7480D3045
:102BD00010BD49B142B1106848B15BB101F01AFAB9
:102BE00040B1B248173010BDB0480E3010BDAF48EC
:102BF0000F3010BD002010BD10B50A2802D3AB481D
:102C00000D3010BD41B1106848B15BB101F002FA5E
:102C100040B1A648083010BDA448113010BDA348EB
:102C2000123010BD002010BD2DE9F04104468C4645
:102C300017461E461CF003004FF000020BD001287F
:102C400012D003281AD09AA001F07AFBBDE8F04117
:102C500099A001F075BBA089E388411C994201D17C
:102C6000A28113E0A18111E0A08918B1401EA081CA
:102C7000A0890BE0E088401EA081F9E7E089E388A5
:102C8000411C994201D1E28100E0E1812189226861
:102C900000FB01255FEACC700BD03946284632682C
:102CA00001F0F0F920892D1F284431680160BDE84A
:102CB000F081281F0844046829462246384601F05E
:102CC000E1F93460F3E72DE9FF5F0446DDF838A051
:102CD0000F469946002507F0010601F051F880469D
:102CE000714904EB440000EBC400096801EB800467
:102CF000A08810B1F80703D00BE06C4D093585E0D2
:102D00002089D9F80010001F814202D2674D1E357C
:102D10007CE0F80708D02089D9F80010001F814214
:102D200002D9624D143571E004EB4601088AE8B11E
:102D3000401E08824B4639462046029AFFF774FF30
:102D4000EEB3002004EBC000143000F029FAB8B351
:102D5000002E54D04FF0000004EB4000008A00F138
:102D6000010081B24ED14FF001004CE0BAF1000FEA
:102D700005D05948008850B14C4D6D1D46E0F8070C
:102D800002D04A4D153541E0484D1C353EE05348D0
:102D9000D0F800B004EBC600143052464FF4005196
:102DA000FFF711FD404600F0F3FF01F031F800F0AD
:102DB000E7FF8046BBF804004106BBD501E007E011
:102DC00008E020F04000ABF80400384DAD1D1DE0D8
:102DD0000120B7E78EB1002004EBC00080692838DD
:102DE0004FF40051FFF712FD404600F0D1FF01F013
:102DF0000FF8002004B0BDE8F09F0120ECE74FF091
:102E00000100A9E7002004EB40000182404600F0E9
:102E1000BFFF2846EEE7F8B507460D4616461C46A6
:102E20002346324629463846FFF7CDFE002806D114
:102E3000002133462A4638460094FFF744FFF8BD88
:102E40007FB582B006460D461C46234604AA294695
:102E50003046FFF7D1FE002806D1012104AB2A46F7
:102E600030460094FFF72FFF06B070BD7FB582B0EB
:102E700006460D461C46234604AA29463046FFF75F
:102E8000BBFE0028F0D1032104AB2A463046009453
:102E9000FFF719FFE8E71FB502AAFFF7BCFF04B070
:102EA00010BD0000E0000020B40000200106000278
:102EB0005B4552525D200000696E76616C6964204A
:102EC0007175657565206F706572617465207479C0
:102ED0007065210A000000005400002074000020EA
:102EE0001FB50199002904D0042201A9FFF7BEFFF4
:102EF000D5E7AF48D3E71FB50199002904D00422D4
:102F000001A9FFF79DFFCAE7A948C8E72DE9F047E7
:102F100004468946174600250A2C01D3002004E602
:102F2000B9F1000F05D037B101F074F818B10020E5
:102F3000FBE50020F9E500F023FF80469D4904EB06
:102F4000440000EBC400096801EB8006B08808B3B8
:102F5000484600F05BFD054628001BD1D7B19648D6
:102F600004683A464FF4005106F12400FFF72BFCA9
:102F7000404600F00DFF00F04BFF00F001FF8046DF
:102F8000A088410603D520F04000A08002E0256D16
:102F900000202065404600F0FBFE2846C5E52DE9EF
:102FA000F04104460E4617460A2C02D38048C01D45
:102FB0007DE66EB100F0E4FE05463946304600F08D
:102FC00045FD40B1284600F0E3FE794809306EE641
:102FD000774808306BE6774904EB440000EBC40007
:102FE000096801EB8004A08848B104F1240000F0D6
:102FF000D7F850B1284600F0CBFE002057E628460F
:1030000000F0C6FE6A48083851E6A46A283C4FF42E
:1030100000512046FFF7FAFB304600F0F7FC206530
:10302000284600F0B5FE00F0F3FEE6E72DE9F0419A
:1030300004460A2C02D35E480D3838E600F0A0FEA4
:1030400006465C4904EB440000EBC400096801EB50
:103050008004A088C8B104F1140000F0A1F8544D18
:103060000A3DA8B104F11C00074600F099F888B1A8
:1030700004F1240000F094F870B1608A218A0844B9
:10308000E18888420ED0EC1C07E0494C083C04E083
:103090002C4602E02C4600E02C46304600F078FE3C
:1030A000204604E6256800202060A080414839467B
:1030B000001D00F06EF8304600F06AFE3F482946D9
:1030C0000068BDE8F04100F0ACBD2DE9F0410646D6
:1030D0000C460025002C04D00A2E05D33448001FCE
:1030E000E5E53348401DE2E51C21204600F0E3FF02
:1030F00000F046FE03462F4906EB460000EBC600F3
:10310000096801EB8000818881B12660C188A180B7
:103110000189E18081892181C1896181018AE181FF
:10312000418AA1818169283901270BE0204D083DA2
:103130002AE091F810C0266907FA0CF216432661BE
:10314000C96A28390A1A1432F3D1016A28393A4671
:1031500007E00F7C666902FA07F73E436661C96AB9
:1031600028390E1A0C36F4D1816A2839174608E03E
:1031700091F810C0A66907FA0CF21643A661C96A55
:1031800028390A1A121DF3D1184600F001FE28460C
:103190008DE542684A60086042681160416070478E
:1031A0004168814201D10120704700207047000032
:1031B00012060002B400002074000020E00000208D
:1031C0002DE9F041BC4840600060BC484FF4A0715C
:1031D000006800F0FEFCB84D2D1F286090B100245F
:1031E00000262F1D286800EB0411CC8021F8086B05
:1031F000386800F053F9641CA4B2142CF2D30020F8
:10320000BDE8F081AE48FBE72DE9F84F06460F46D2
:103210001546002D09D0DFF8ACA24FF00009BE42E0
:1032200007D9A74C0834514610E0A548801CBDE8DA
:10323000F88F00F0A5FD80469F4800F036F970B188
:10324000404600F0A5FD9E4CE41C5146002322465A
:103250009DA0CDF8009000F00BFB2046E7E79648D4
:103260004368D3E900010860586853F808194860BA
:103270005E80012018809F8003F108046460246050
:10328000D8882860404600F083FD0020CFE70A463A
:103290004FF6FF71B8E70A460121B5E72DE9F8437B
:1032A000DFF81C82874D002708F10108142802D39B
:1032B0004446294626E08049091F096801EB0014AD
:1032C00000F05EFD0646208880B104F108008046CB
:1032D00000F0EBF880B14146774800F0DFF8278036
:1032E000304600F055FD0020BDE8F883304600F080
:1032F0004FFD4446294605E0304600F049FD704C3C
:1033000009342946002322466FA0009700F0B0FA46
:103310002046E9E72DE9F8438946694D00276D1CF1
:10332000DFF8A081142808D300232A46414666A06E
:10333000009700F09DFA2846D6E75F49091F096803
:1033400001EB001400F01CFD0646208840B16088A7
:1033500090B1401E6080304600F01AFD0020C3E7A7
:10336000304600F015FD00232A46414656A000973E
:1033700000F07EFA2846B7E7B9F1000F0BD000F055
:1033800049FE58B14E4C641D54A000F0D9FF55A021
:1033900000F0D6FF28E04A4C241D25E05A4800885A
:1033A00040B1474CA41D4DA000F0CAFF57A000F04B
:1033B000C7FF19E05E480568AC614A46082104F180
:1033C0000800FFF700FA304600F0E2FC00F020FDB4
:1033D0002879400614D500F0D3FC0646A88820F0D2
:1033E0004000A880364CE41D304600F0D1FC00239C
:1033F0002246414634A0009700F03AFA204673E78F
:10340000002071E72DE9F8432B49091F096801EBFA
:1034100000142B4F7F1C142801D3384664E700F0BA
:10342000AFFC05462088DFF89C80002688B1A08884
:103430006188884219D1284600F0AAFC204C00235C
:1034400008342246414620A0009600F011FA20469A
:103450004AE7284600F09CFC00233A4641461AA061
:10346000009600F005FA38463EE704F1080000F047
:103470001CF838B16088401C6080284600F088FC49
:10348000002031E7E068283886610821FFF7BEF99F
:10349000284600F07DFC00F0BBFCF1E742684A6082
:1034A000086042681160416070474168814201D103
:1034B0000120704700207047C4000020E000002079
:1034C00000070002F8C3B2A16F735F756E73706579
:1034D00063696669635F66696C6500005B455252AB
:1034E0005D2000002121214C4F535F4552524E4F29
:1034F0005F53454D5F50454E445F494E54455252CF
:103500002121210A00000000540000202121214C2B
:103510004F535F4552524E4F5F53454D5F50454E9E
:10352000445F494E5F4C4F434B2121210A0000006C
:10353000740000204068884201D10020704748682C
:1035400020F0404008440830704770B504460E46ED
:103550002546002D01D0182E01D8002070BD31461F
:10356000204600F0A8FDAE6010342C606C606068EE
:1035700020F080406060002020606068183E66F3A4
:103580001D006060012070BD30B50023002802D00E
:1035900019B142680BE0012030BD012030BD5468F4
:1035A000650003D524F04044234408331268002A00
:1035B000F5D182689A4201D2012030BD4B6080680B
:1035C0000860C01A886087480268CA60406808615D
:1035D000002030BD10B586B00446142101A800F0CB
:1035E0006AFD01A92046FFF7CFFF06B010BD2DE907
:1035F000F04706460D460024A146002E08D000F0F4
:10360000BFFB8046ED1C25F003057068754F13E085
:103610000020BDE8F08741684A000CD421F0404109
:10362000A94208D324B1626822F040428A4202D9FA
:103630000446A9422DD000680028ECD1E4B16068AE
:1036400020F04040401B082823D9621908325068F6
:1036500020F0804050606168491B083961F31D000B
:10366000506014607068A0420ED011463046FFF7DB
:1036700061FF50B1026008E05BA000F061FE2946E6
:103680005BA000F05DFE14E07260606865F31D00F1
:103690006060606820F0004040F08040606004F1AD
:1036A0000809B86828440830B860F968884200D929
:1036B000F8607068406820F04040B0F5806F02D23A
:1036C0003046FFF787FF404600F062FBB9F1000F7C
:1036D00002D03868401C386048469AE72DE9F0412E
:1036E00004460E460125002C11D086B12068B04258
:1036F00003D860680830B0420BD23BA000F020FE37
:10370000314647A000F01CFE0020BDE8F0810120FA
:10371000FBE700F035FB0746A6F10802314E506882
:1037200040000ED5206890420DD01168814208D328
:1037300060680830814204D82046FFF7FBFE9042C3
:1037400001D000252DE0506820F08040506020F02E
:103750004040B16800F108038B4204D8081A0838C9
:10376000B06000E00246106868B141684900F9D5D0
:1037700009E051680B44083363F31D01516061682F
:10378000814200D1626011462046FFF7D3FE10B19E
:1037900043685900EDD511462046FFF7CBFE00B136
:1037A0000260384600F0F4FA012D02D17068401C26
:1037B00070602846A9E70B48C068704701460020A2
:1037C000002901D049680AE0012070474A68530087
:1037D00004D422F04042824200D9104609680029F0
:1037E000F4D17047CC0000205B4552525D200000B0
:1037F00074686572652773206E6F7420656E6F75CF
:1038000067682077686F6C6520746F20616C6C6FDF
:1038100063202578204279746573210A0000000036
:1038200030782578206F7574206F662072616E671E
:1038300065210A004218521E491E824202D922EA1C
:10384000010070478843704770B50546002400F0BA
:10385000E1FB00280BD12DB12846FEF7EBF804461A
:1038600004B901242046BDE87040FEF70BBF70BDCF
:10387000F8B50E46069D074C2468002C02D0314650
:103880000095A0470448864201D00020F8BD0020E2
:10389000F8BD0000DC000020F8C3B2A12F48016889
:1038A00041F470010160704700F06AFAFEE72C49AC
:1038B00010200860704710B500F012FB04463CB1C0
:1038C00028A000F03DFD29A000F03AFD204610BDE3
:1038D00000F034FA204610BD10B5FFF7E8FF294983
:1038E0002748086000F042F9044644B11DA000F0EA
:1038F00027FD214624A000F023FD204610BDFEF741
:10390000A3FA04463CB117A000F01AFD25A000F070
:1039100017FD204610BDFEF7BFFCFFF751FC002845
:10392000F8D1FFF7CBF804463CB10EA000F008FD3B
:1039300021A000F005FD204610BDFDF72EFD044638
:103940003CB108A000F0FCFC20A000F0F9FC2046EF
:1039500010BDFEF715FC0028FAD110BD88ED00E07F
:10396000640000205B4552525D2000006F73546973
:10397000636B5374617274206572726F720A000017
:1039800088060020E00000206F734D656D53797349
:1039900074656D496E6974206572726F722025645A
:1039A0000A0000006F735461736B496E697420657F
:1039B00072726F720A0000006F7351756575654908
:1039C0006E6974206572726F720A00006F735377AC
:1039D000546D72496E6974206572726F720A0000CC
:1039E00070B504460E4615464FF0FF30002C0CD043
:1039F000002D0AD000F0C4F9B6FBF5F12160A560F6
:103A00000021616000F0C4F9002070BD70B504466B
:103A1000002500F0B5F90646D4E90010884210D21E
:103A20001E48A168006800F0D4F805461DB1606822
:103A3000401C606005E01AA000F082FC1AA000F0B3
:103A40007FFC304600F0A4F9284670BD70B50446EE
:103A50001248006800F0E5F805463DB900F090F91D
:103A6000616809B1491E616000F092F9284670BD95
:103A70000A468168104600F01EBB10B500280AD027
:103A800049B142B13BB104680C6041681160806883
:103A90001860002010BD012010BD0000E0000020D3
:103AA0005B4552525D2000004C4F535F416C6C6F80
:103AB000634D656D2072657475726E206661696C08
:103AC000210A0000002070472DE9F84F054688467E
:103AD000DFF824A2DAF800402746002D02D0B8F122
:103AE000100F02D80120BDE8F88FA80701D00120EF
:103AF000F9E700F045F9814605EB08061CE0A068EF
:103B00002044A54201D8A64203D8854212D286425B
:103B100010D37AA000F014FCA06832462044009034
:103B20002346294677A000F00BFC484600F030F908
:103B30000120D8E72746E468002CE0D1414628461A
:103B4000FFF703FD50B1DAF8000060B1FD6000201E
:103B5000E860484600F01CF90020C4E7484600F041
:103B600017F90120BFE7CAF80050F0E77148724921
:103B7000091AA9E770B504460125002C09D000F008
:103B8000FFF85D4A11688C4205D1C96811600025B3
:103B90000DE0284670BD0A4607E08C4203D1C96893
:103BA000D160002503E00A46C9680029F5D100F07C
:103BB000EFF8284670BD70B54F480468002504E052
:103BC0006D1C2046FFF706FDE468002CF8D128465E
:103BD00070BD0022002802D009B1FFF708BD1046D1
:103BE000704710B5034614460020002B18D000295A
:103BF00016D0002C14D0A20712D12144091D18465A
:103C0000FFF7F5FC00280BD00119491E641EA143E3
:103C1000884205D0081A40F0004041F8040C0846DC
:103C200010BD10B500280DD061B151F8042C002A48
:103C300002DA22F00042891AFFF750FD012803D072
:103C4000012010BD012010BD002010BD2DE9F0475E
:103C500081460D4614460027002C02DA0020BDE8FC
:103C6000F08700F08DF8804605B1E4B105B3284631
:103C700050F8040C20F04046A64200D326462146C8
:103C80004846FFF7A6FF074647B132462946384661
:103C900000F0F8F929464846FFF7C3FF404600F018
:103CA00077F83846DBE729464846FFF7BAFFF5E7DD
:103CB00021464846FFF78DFF0746EFE710B586B06F
:103CC0000C4601A9FFF760FC10B1012006B010BD41
:103CD00001982060029860600398A0600498E060FA
:103CE000059820610020F1E710B5FFF767FD00217E
:103CF000002800D8084610BDE40000205B45525261
:103D00005D200000706F6F6C205B25702C20307878
:103D100025782920636F6E666C69637420776974F7
:103D20006820706F6F6C205B25702C2030782578B0
:103D3000290A000088060020005000202D4C2E4D3E
:103D400025602E484FF0010101604FF0020080F322
:103D500014882B4842682A480260294B18688788D3
:103D60004FF0100847EA08078780D0F800C00CF130
:103D7000240CBCE8FF008CF30988AE4662B63047DD
:103D8000EFF3108072B67047EFF3108062B67047A1
:103D900080F3108870471B484FF0805101607047D6
:103DA000EFF3108C72B6184A126822B12DE9005058
:103DB0009047BDE80050EFF3098020E9F01F104D57
:103DC0002E683060B7884FF0100827EA0807B780E0
:103DD0000B484068286087884FF0100847EA0807BA
:103DE00087800168B1E8F01F81F309888CF310889F
:103DF0007047000020ED00E00000F0F070000020AF
:103E00007400002004ED00E058000020FFF7C3BF5D
:103E100010B5FFF7B5FF0446FDF759FA2D492838CC
:103E200048600968814202D02B48008820B12046B2
:103E3000BDE81040FFF7ACBF2046FFF7A9FFBDE883
:103E40001040FFF7A8BF72B6FEE770B506460D46F4
:103E500014464FF0CA322946204600F025F94FF0AB
:103E6000CC302060601944384FF0043101604FF0CD
:103E7000053141604FF0063181604FF00731C1607C
:103E80004FF0083101614FF0093141614FF01031BD
:103E900081614FF01131C1610021016246624FF032
:103EA000013181624900C1624FF0033101634FF07B
:103EB00012314163AFF2710181630849C1634FF070
:103EC0008071016470BDBFF34F8F30BFBFF36F8F40
:103ED000704700007400002054000020C524000832
:103EE00010B547480068002803D04FF47A7290421A
:103EF00001D2444810BDB0FBF2F1434B1960434975
:103F000000240C604C60B0FBF2F0401EB0F1807FEA
:103F100001D301200AE04FF0E02148613C4AF02043
:103F2000107000208861072008610020012801D05E
:103F3000002010BD3348801C10BD10B5FFF720FFD6
:103F40004FF0E0218C69324A1F3A1268520103D5C2
:103F500089692D4A12688C18FFF71AFF204610BD98
:103F60002DE9F04106460F46FFF70AFF01462748B4
:103F70000CC84FF0E0208469254D1F3D2D686D0170
:103F800003D58469521C43F100031F4805680020D3
:103F9000A2FB05C803FB058302FB00332A1B1CEBB5
:103FA0000202434133603A60BDE8F0410846FFF742
:103FB000EFBE2DE9F04105460E46FFF7E1FE014652
:103FC00012480CC84FF0E02044698069201A104F55
:103FD0001F3F3F687F0102D5521C43F10003A2FB43
:103FE00004C803FB0483002702FB07331CEB000219
:103FF0007B412B603260BDE8F0410846FFF7C8BE48
:104000000000002000040002B0000020A8000020F2
:1040100023ED00E0EFF305807047FFF7C1BEFEF728
:1040200039BD2DE9F05F0546002092469B46884643
:104030000646814640241BE0284641464746224624
:1040400000F0FFF853465A46C01A914110D311466A
:104050001846224600F0E6F82D1A67EB01084F4695
:1040600022460120002100F0DDF817EB00094E4147
:10407000201EA4F10104DFDC484631462A464346AF
:10408000BDE8F09F40EA01039B0703D009E008C99F
:10409000121F08C0042AFAD203E011F8013B00F80D
:1040A000013B521EF9D27047D2B201E000F8012B59
:1040B000491EFBD270470022F6E710B513460A46A8
:1040C00004461946FFF7F0FF204610BD10B5044620
:1040D00004E00B7800F8013B03B1491C521EF8D2F2
:1040E000204610BD2DE9F04D81EA030404F0004B99
:1040F00021F0004514464FF0000A23F0004150EA39
:10410000050220D054EA01021DD0C5F30A57024629
:10411000C5F31303C1F31300C1F30A5640F480152D
:1041200043F48013A7EB0608101BD64608F2FD38AF
:1041300073EB050002D308F1010801E092185B411E
:10414000B8F1000F03DA00200146BDE8F08D002031
:104150004FF48011064684460EE0171B73EB0507EB
:1041600005D3121B63EB050306434CEA010C490817
:104170004FEA300092185B4150EA0107EDD152EA54
:10418000030012D082EA040083EA0501084305D047
:10419000101BAB4106D20122002306E000224FF0A3
:1041A000004302E06FF0010253101AEB06004CEBE3
:1041B000085110EB0A0041EB0B01BDE8F04D00F097
:1041C00050B80EB540F2334102910021CDE9001103
:1041D0000A460B4600F054F803B000BD0EB540F29D
:1041E000334202920022CDE90022134600F048F843
:1041F00003B000BDC1F30A52C1F3130140F2FF3313
:1042000041F480119A4202DA00200146704740F2E0
:1042100033439A42A2F2334202DC524200F011B818
:10422000AFF30080202A04DB203A00FA02F10020DC
:1042300070479140C2F1200320FA03F319439040E4
:104240007047202A04DB203A21FA02F0002170474F
:1042500021FA02F3D040C2F12002914008431946EE
:10426000704710B5141E73F1000408DA401C41F1C8
:10427000000192185B411A4301D120F0010010BDEA
:104280002DE9F04D92469B4611B1B1FA81F202E060
:10429000B0FA80F220329046FFF7C4FF04460F4682
:1042A00040EA0A0041EA0B0153465A46084313D03C
:1042B000114653EA010019D0C8F140025046FFF7F9
:1042C000C0FF05460E46504659464246FFF7AAFF34
:1042D000084305D0012004E020463946BDE8F08DB2
:1042E0000020054346EAE0762C4337430A986305ED
:1042F000E40AA0EB08000022FD0A44EA47540A3011
:1043000002D500200146E9E7010510196941DDE900
:10431000084500196941BDE8F04DA2E7064C074D7C
:1043200006E0E06840F0010394E807009847103485
:10433000AC42F6D3FBF700FF3449000854490008AB
:104340000FB4054B10B503A9044A029800F018F801
:1043500010BC5DF814FB000037120008E8000020D4
:1043600002E008C8121F08C1002AFAD1704770473E
:10437000002001E001C1121F002AFBD1704700009C
:104380002DE9FF4F8DB00F460546002606E0252893
:104390000BD0DDE90F1290476D1C761C28780028A1
:1043A000F5D111B03046BDE8F08F0024A246A146F9
:1043B0000122EC4900E0044315F8013F203B02FADA
:1043C00003F00842F7D128782A2810D06FF02F0286
:1043D0002878A0F13001092914D80AEB8A0102EBF0
:1043E000410144F0020400EB010A6D1CF0E701CF2B
:1043F0005FEA000A03D544F40054CAF1000A44F00D
:1044000002046D1C28782E2817D115F8010F44F0EE
:1044100004042A280ED06FF02F022878A0F1300172
:1044200009290AD809EB890102EB410100EB0109D6
:104430006D1CF2E757F8049B6D1C28786C280FD090
:1044400006DC4C2817D068280DD06A2814D104E067
:10445000742810D07A280FD10DE044F400140AE03B
:1044600044F4801401E044F440146978814202D19C
:1044700004F580146D1C6D1C2A786E2A1FD00CDC8C
:10448000632A31D004DC002A8BD0582A11D1A3E052
:10449000642A68D0692A0CD165E0732A2ED004DC26
:1044A0006F2A73D0702A04D19BE0752A6FD0782AC6
:1044B0006ED01046DDE90F129047761C50E1C4F330
:1044C0000250022806D0032809D0042801CF09D0C1
:1044D000066045E101CFF117C0E9006140E101CF7D
:1044E00006803DE106703BE117F8040B8DF80000F3
:1044F00000208DF80100EB46012003E057F804BBD3
:104500004FF0FF3061074FF0000102D40DE008F1D9
:104510000101884649450FDA8045F8DB1BF8081091
:104520000029F4D108E008F1010188468142FADB54
:104530001BF808100029F6D1DDE90F23AAEB0800CB
:104540008146214600F036F9304400EB080604E0CD
:10455000DDE90F121BF8010B9047B8F10108F7D203
:1045600021464846F7E00A21C4F302534FF0000BFE
:104570000891022B04D001CFC117032B09D00AE008
:10458000FF1D27F00707F7E8020108E032E01FE00F
:1045900020E000B2C117042B01D140B2C117031EA5
:1045A00071F1000307DA4FF0000CD0EB0C006CEB5C
:1045B00001012D2302E0230504D52B238DF824309F
:1045C000012303E0E30701D02023F7E7984658E0F2
:1045D0000A2110E010210EE010204FF0000B08908F
:1045E0000CE010214FF0000B44F004044FF00809D8
:1045F000089103E008214FF0000B0891C4F3025327
:10460000022B04D001CF0021032B06D006E0FF1DB2
:1046100027F00707F7E8020103E080B2042B00D17E
:10462000C0B24FF0000823072BD5702A07D0DDF861
:1046300020C08CF0100C5CEA0B0C05D00EE040237F
:104640008DF82430012308E050EA010306D030231E
:104650008DF824308DF8252002239846DDF820C0FF
:104660008CF0080C5CEA0B0C0BD150EA010301D171
:10467000630706D530238DF824304FF00108A9F1E7
:104680000109582A04D038A20B9208AA0A920BE01A
:104690003AA2F9E75B46089AFFF7C3FC0B9B9B5CC9
:1046A0000A9A521E0A92137050EA0102F2D10A9835
:1046B000ADEB000000F1200B600702D524F480343C
:1046C00001E04FF00109D94502DDA9EB0B0000E044
:1046D000002000EB0B0141440890AAEB010AE00323
:1046E00006D4DDE90F232146504600F063F8064466
:1046F0004FF0000908E009A911F80900DDE90F12DF
:10470000904709F10109761CC145F4DBE0030CD5A3
:10471000DDE90F232146504600F04CF8064404E042
:10472000DDE90F1230209047761C0899481E08904A
:104730000029F5DC08E00A980A990078491C0A91DA
:10474000DDE90F129047761CBBF10001ABF1010BC4
:10475000F1DC21465046DDE90F2300F019F806444C
:104760006D1C1BE6092801003031323334353637F1
:1047700038396162636465660000000030313233AD
:10478000343536373839414243444546000000004D
:104790002DE9F041044600251E461746880404D43E
:1047A00005E039462020B0476D1C641EF9D5284627
:1047B000BDE8F0812DE9F041044600251E469046F3
:1047C000C80301D5302700E02027880404D505E080
:1047D00041463846B0476D1C641EF9D52846BDE8F1
:1047E000F08100002D2D2D2D2020202020202020A4
:1047F00020202020202020202020202020202020B9
:1048000020202D2D2D202020202D2D2D2D2D2D2D26
:104810002D2020202D2D2D2D2D2D2D2D2020202023
:10482000202D2D2D2D2D2D2D2D2D202020202D2DF9
:104830002D2D2D2D2D2D2D2D2020202D2D2D2D2DCF
:104840002D2D2D2D2D20202D2D2D2D2D2D2D2D2DB2
:104850002D2020202D2D2D2D2D2D2D2D2D20202DC9
:104860002D2D2D2D000000000D0A4E616D652020BC
:104870002020202020202020202020202020202038
:104880002020202020202020544944202020205077
:1048900072696F7269747920202053746174757322
:1048A00020202020202020537461636B53697A6597
:1048B0002020202057617465724C696E652020208D
:1048C00020537461636B506F696E742020546F7055
:1048D0004F66537461636B2020204576656E744D7E
:1048E00061736B202053656D49440000252D3330E2
:1048F000732C203078252D35782C20252D313164EE
:104900002C20252D3133732C203078252D31317812
:104910002C203078252D3131782C203078252D3100
:1049200030782C203078252D3131782C20307825A6
:104930002D3978005449000800000020EC000000E8
:1049400060430008404A0008EC0000209C0500007D
:104950007043000800A24A040000000000000000AC
:10496000010203040607080902040608000000000B
:104970000102030401020304060708090000000005
:104980000000000000000000000000000000000027
:104990000000000000000000000000000000000017
:1049A0000000000000000000000000000000000007
:1049B00000000000000000000000000000000000F7
:1049C00000000000000000000000000000000000E7
:1049D00000000000000000000000000000000000D7
:1049E00000000000000000000000000000000000C7
:1049F00000000000000000000000000000000000B7
:104A000000000000000000000000000000000000A6
:104A10000000000000000000000000000000000096
:104A20000000000000000000000000000000000086
:104A30000000000000000000000000000000000076
:0400000508000131BD
:00000001FF
